:020000020000FC
:0200000061C0DD
:100040000C94230000000E946F010E946F010E9427
:100050006F010E946F010E946F01AF5F50916E00AF
:1000600051E050936E000E945000AE3309F0189595
:100070000E941E01A0E0813031F0823039F08830DA
:1000800041F0843049F0660F0C944F0066950C9453
:100090004F00B6950C944F00BB0F0C944F00189571
:1000A00021E0E0E0F1E00B2F0223003011F40C948A
:1000B0005C0061930C945E0000E00193220F2030FD
:1000C00091F7089550912500556055BD7894509151
:1000D0006E0051E050936E000FEF04B907B90AB9F2
:1000E00050E000917C000064006000937C0000916F
:1000F0007A00016002600460006800937A0068E0A2
:10010000B8E05FEF91E0A2E0E0E0F1E02A2F219378
:1001100020E0219320E0219320E0219320E021930F
:1001200020E0219320E0219320E02193E0E0F1E022
:10013000708150E001E011E0E0E0F1E00C94A300F8
:10014000000F0C94AE0001E011E0E0E0F1E0E0E02F
:10015000F1E00C94AE00000F0C94AE0011E0719130
:10016000003089F3703061F3003184F5003871F1AB
:10017000103089F3212F272350E0123049F011303D
:1001800039F02695269508B95BB925B90C94D100AC
:10019000220F220F220F220F220F220F08B92BB994
:1001A00055B9110F0E946F010E946F010E946F01EB
:1001B0000E946F010E946F010E946F010E946F01F7
:1001C0000E946F010E946F010C94B800103019F268
:1001D000212F272350E0123069F0113059F0269575
:1001E00026950695069558B90BB925B9000F000F4D
:1001F0000C940901220F220F220F220F220F220F2F
:1002000006950695302F322B58B93BB955B9000FDA
:10021000000F110F0E946F010E946F010E946F0179
:100220000E946F010E946F010E946F010E946F0186
:100230000E946F010E946F010C94E600E0E0F1E083
:1002400020917C00207F25602062206820937C0024
:1002500030917A003064306830937A0030917A00BF
:1002600036FD0C942E013091780040917900463093
:1002700028F0483040F480E00C944601823031F0A0
:1002800081E00C944601813009F082E020917C00ED
:10029000207F2460206420937C0030917A003064B9
:1002A000306830937A0030917A0036FD0C94530117
:1002B0003091780040917900443093FF28F040312C
:1002C00092FF28F40C94680184E00C94680188E0A3
:1002D000803011F00C946D01892F982F08950E94A1
:1002E00080010E9480010E9480010E9480010E9482
:1002F00080010E9480010E9480010E948001089577
:0803000051505130E9F308955A
:00000001FF
