:020000020000FC
:020000006AC1D3
:100040000C9423000000AF5FBA0E01E000936E0035
:100050000E9455000E9447010E946B00AE3109F0DA
:1000600018950E942D02A0E000E0813031F082302E
:1000700051F0883069F0843081F0660F603091F47F
:1000800061E00C945200669569F460E80C945200AB
:10009000B69541F4B0E80C945200BB0F19F4B1E0EE
:1000A0000C9452000E94C400189521E0E0E0F1E0B9
:1000B0000E945B010B2F0223003011F40C946300AB
:1000C00061930C94650000E00193220F203091F7BA
:1000D0000E945B01089590E0C8E0D1E02991652E6F
:1000E000732E71E0E0E0F1E0032F0723003011F4FC
:1000F0000C947F000081052B01930C9481000081FA
:100100000193770F703081F70E948C009F5F9A15E2
:1001100041F7562D372D0895561721F43B1711F44A
:100120000E94B502581531F4391521F40E94ED00F2
:100130000C9492002991213031F0223061F0283066
:1001400091F02430C1F056955030E9F4252F20E885
:10015000522F0C94C300550F5030A9F4252F21E0E5
:10016000522F0C94C300330F303069F4232F21E059
:10017000322F0C94C3003695303029F4232F20E819
:10018000322F0C94C3000895C8E0D1E02991299141
:10019000213031F0223059F0283081F02430A9F09C
:1001A000550F503081F7252F21E0522F0895569595
:1001B000503049F7252F20E8522F089536953030DA
:1001C00011F7232F20E8322F0895330F3030D9F65E
:1001D000232F21E0322F0895089520917C00207F65
:1001E0002460206820937C00C0917A00C064C068BD
:1001F000C0937A00C0917A00C6FD0C94FA00C091B9
:10020000780040917900BC0EB694CB2DCF70BC2EF7
:1002100040E021E0CB2DCF5FC03009F4C1E0220FD8
:100220004F5F4C17E1F7203009F421E0822E0E9445
:10023000940220917C00207F2460206420937C0025
:10024000C0917A00C064C068C0937A00C0917A00FF
:10025000C6FD0C942601C091780040917900BC0E37
:10026000C695CB2DCF70BC2E40E021E0CB2DCF5FCB
:10027000CB9DC10DC90DC03009F4C1E0220F4F5F05
:100280004C17E1F7203009F421E0922E089521E087
:10029000E0E0F1E0092D0223003011F40C94550147
:1002A0000081082901930C94570100810193220FCA
:1002B000203081F70895861669F49B1659F42A2D8B
:1002C0002F5FA22E0E9494020E94ED00861611F468
:1002D0009B16C1F3089508E00EBF0FEF0DBF00910C
:1002E0002500056005BD789400916E0001E0009343
:1002F0006E000FEF04B907B90AB900917C000064E1
:10030000006000937C0000917A000160026004604C
:10031000006800937A0003E0A02E00E4802E00E441
:10032000902E0E94ED0068E0B8E054E038E0A2E0D2
:10033000E0E0F1E02A2F219320E0219320E02193B7
:1003400020E0219320E0219320E0219320E02193DD
:1003500020E02193E0E0F1E07081E8E0F1E02A2F75
:10036000219324E0219321E0219322E0219324E0B2
:10037000219320E0219320E0219320E0219301E0CC
:1003800011E0000F0C94CD0101E011E0E0E0F1E09C
:100390000C94CD01000F0C94CD0111E0719100304F
:1003A00099F3703071F3003144F5003831F11030B9
:1003B00089F3212F2723D0E0123049F0113039F092
:1003C0002695269508B9DBB925B90C94F001220FC2
:1003D000220F220F220F220F220F08B92BB9D5B9F5
:1003E000110F0E9494020E9494020E9494020E94A3
:1003F00094020E9494020C94D701103059F2212FDC
:100400002723D0E0123069F0113059F02695269557
:1004100006950695D8B90BB925B9000F000F0C94B5
:100420002002220F220F220F220F220F220F0695E9
:100430000695C02FC22BD8B9CBB9D5B9000F000F84
:10044000110F0E9494020E9494020E9494020E9442
:1004500094020E9494020C94FD01582EC8E0D1E051
:10046000888320E009910F932F5F0A2D0F5F2017DB
:10047000C9F72F9120E00F910A932F5F2A15D9F722
:10048000888320917C00207F256020622068209353
:100490007C00C0917A00C064C068C0937A00C091AB
:1004A0007A00C6FD0C944F02C0917800409179000B
:1004B000B40E443020F0483038F40C946702823097
:1004C00031F081E00C946702813009F082E02091E4
:1004D0007C00207F2460206420937C00C0917A00FF
:1004E000C064C068C0937A00C0917A00C6FD0C94C5
:1004F0007402C091780040917900B40E443020F02D
:10050000403138F40C948D02883039F084E00C943A
:100510008D02852D843009F088E0803011F00C9434
:100520009202852D582E08950E94B1020E94B102B8
:100530000E94B1020E94B1020E94B1020E94B10267
:100540000E94B1020E94B1020E94B1020E94B10257
:100550000E94B1020E94B1020E94B1020E94B10247
:10056000089521502130E9F3089560E0B0E00C9443
:04057000B502089533
:00000001FF
