:020000020000FC
:02000000B2C08C
:100040000C94230000000E94E1010E94E1010E9443
:10005000E1010E94E1010E94E101AF5F00916E00A9
:1000600001E000936E000E9455000E946700AE33CD
:1000700009F018950E947F01A0E000E0813031F086
:10008000823039F0883041F0843049F0660F0C94AA
:10009000520066950C945200B6950C945200BB0F1A
:1000A0000C9452000E949E00189521E0E0E0F1E0DF
:1000B0000B2F0223003011F40C94610061930C9417
:1000C000630000E00193220F203091F7089590E043
:1000D000C8E0D1E02991652E732E71E0E0E0F1E0F7
:1000E000032F0723003011F40C947B000081052BB3
:1000F00001930C947D0000810193770F703081F79C
:100100000E9488009F5F9A1541F7562D372D08955C
:100110002991213031F0223039F0283041F024305B
:1001200049F056950C94B200550F0C94B200330F61
:100130000C94B20036950C94B2000895C8E0D1E05A
:1001400029912991213031F0223031F0283031F0DD
:10015000243031F0550F0895569508953695089539
:10016000330F0895089508E00EBF0FEF0DBF009103
:100170002500056005BD789400916E0001E00093B4
:100180006E000FEF04B907B90AB900917C00006452
:10019000006000937C0000917A00016002600460BE
:1001A000006800937A000AE0A02E68E0B8E054E00E
:1001B00038E0A2E0E0E0F1E02A2F219320E0219353
:1001C00020E0219320E0219320E0219320E021935F
:1001D00020E0219320E02193E0E0F1E07081E8E06D
:1001E000F1E02A2F219324E0219321E0219322E0C2
:1001F000219324E0219320E0219320E0219320E02B
:10020000219301E011E0000F0C940F0101E011E0D7
:10021000E0E0F1E00C940F01000F0C940F0111E0ED
:100220007191003099F3703071F3003184F500382A
:1002300071F1103089F3212F2723D0E0123049F0DB
:10024000113039F02695269508B9DBB925B90C94FB
:100250003201220F220F220F220F220F220F08B984
:100260002BB9D5B9110F0E94E1010E94E1010E9452
:10027000E1010E94E1010E94E1010E94E1010E946E
:10028000E1010E94E1010E94E1010C94190110308A
:1002900019F2212F2723D0E0123069F0113059F0E4
:1002A0002695269506950695D8B90BB925B9000F60
:1002B000000F0C946A01220F220F220F220F220F2F
:1002C000220F06950695C02FC22BD8B9CBB9D5B948
:1002D000000F000F110F0E94E1010E94E1010E9436
:1002E000E1010E94E1010E94E1010E94E1010E94FE
:1002F000E1010E94E1010E94E1010C944701582EA6
:10030000C8E0D1E0888320E009910F932F5F0A2D88
:100310000F5F2017C9F72F9120E00F910A932F5FED
:100320002A15D9F7888320917C00207F25602062E0
:10033000206820937C00C0917A00C064C068C0939C
:100340007A00C0917A00C6FD0C94A101C09178009A
:1003500040917900443028F0483040F480E00C941B
:10036000B901823031F081E00C94B901813009F09B
:1003700082E020917C00207F2460206420937C0018
:10038000C0917A00C064C068C0937A00C0917A00BE
:10039000C6FD0C94C601C0917800409179004430AC
:1003A00083FF28F0403182FF28F40C94DB0184E0C5
:1003B0000C94DB0188E0803011F00C94E001852D75
:1003C00008950E94F2010E94F2010E94F2010E942F
:1003D000F2010E94F2010E94F2010E94F2010E94C9
:0C03E000F201089521502130E9F3089546
:00000001FF
