:020000020000FC
:1000000000C00FEF04B907B90AB95FEFE0E0F1E013
:100010002DE5219323E021932DEE219325ED2193CE
:1000200020E0219320E0219320E0219320E0219300
:10003000E0E0F1E0708150E001E011E011E0719149
:100040000030C1F1703099F130EC4FE300312CF504
:10005000003819F1103041F1212F272350E01230E0
:1000600041F0113031F02695269508B95BB925B9D4
:1000700009C0220F220F220F220F220F220F08B9D0
:100080002BB955B9110F0E9462000E9462000E94B4
:1000900062000E9462000C942A0006950695302B9F
:1000A0003BB945B9000F000F000F0C941E00000F64
:1000B0000C941E0001E011E0E0E0F1E00C941E0061
:0C00C0000C94010051505130ECF70895F1
:00000001FF
