:020000020000FC
:0200000039C104
:100040000C9423000000AF5FBA0E01E000936E0035
:100050000E944C000E9416010E946200AE3109F01D
:1000600018950E94FC01A0E000E0813031F0823060
:1000700039F0883041F0843049F0660F0C94490023
:1000800066950C944900B6950C944900BB0F0C94EE
:1000900049000E94A700189521E0E0E0F1E00E94ED
:1000A0002A010B2F0223003011F40C945A006193A3
:1000B0000C945C0000E00193220F203091F70E9425
:1000C0002A01089590E0C8E0D1E02991652E732EB1
:1000D00071E0E0E0F1E0032F0723003011F40C940D
:1000E00076000081052B01930C9478000081019328
:1000F000770F703081F70E9483009F5F9A1541F758
:10010000562D372D0895561721F43B1711F40E94F0
:100110008402581531F4391521F40E94BC000C9466
:1001200089002991213031F0223039F0283041F016
:10013000243049F056950C94A600550F0C94A60057
:10014000330F0C94A60036950C94A6000895C8E0D1
:10015000D1E029912991213031F0223031F028303D
:1001600031F0243031F0550F0895569508953695A5
:100170000895330F0895089520917C00207F246016
:10018000206820937C00C0917A00C064C068C0934E
:100190007A00C0917A00C6FD0C94C900C091780025
:1001A00040917900BC0EB694CB2DCF70BC2E40E0B0
:1001B00021E0CB2DCF5FC03009F4C1E0220F4F5FAB
:1001C0004C17E1F7203009F421E0822E0E946302EF
:1001D00020917C00207F2460206420937C00C091CB
:1001E0007A00C064C068C0937A00C0917A00C6FDEE
:1001F0000C94F500C091780040917900BC0EC69532
:10020000CB2DCF70BC2E40E021E0CB2DCF5FCB9D1E
:10021000C10DC90DC03009F4C1E0220F4F5F4C176A
:10022000E1F7203009F421E0922E089521E0E0E08A
:10023000F1E0092D0223003011F40C942401008117
:10024000082901930C94260100810193220F20308C
:1002500081F70895861669F49B1659F42A2D2F5FAD
:10026000A22E0E9463020E94BC00861611F49B1607
:10027000C1F3089508E00EBF0FEF0DBF00912500F8
:10028000056005BD789400916E0001E000936E005A
:100290000FEF04B907B90AB900917C00006400604F
:1002A00000937C0000917A000160026004600068A5
:1002B00000937A0003E0A02E00E4802E00E4902E4C
:1002C0000E94BC0068E0B8E054E038E0A2E0E0E062
:1002D000F1E02A2F219320E0219320E0219320E0D8
:1002E000219320E0219320E0219320E0219320E03E
:1002F0002193E0E0F1E07081E8E0F1E02A2F219322
:1003000024E0219321E0219322E0219324E0219312
:1003100020E0219320E0219320E0219301E011E0EF
:10032000000F0C949C0101E011E0E0E0F1E00C947E
:100330009C01000F0C949C0111E07191003099F325
:10034000703071F3003144F5003831F1103089F329
:10035000212F2723D0E0123049F0113039F02695B3
:10036000269508B9DBB925B90C94BF01220F220FDD
:10037000220F220F220F220F08B92BB9D5B9110F66
:100380000E9463020E9463020E9463020E94630251
:100390000E9463020C94A601103059F2212F2723EA
:1003A000D0E0123069F0113059F026952695069567
:1003B0000695D8B90BB925B9000F000F0C94EF01C1
:1003C000220F220F220F220F220F220F06950695D1
:1003D000C02FC22BD8B9CBB9D5B9000F000F110F60
:1003E0000E9463020E9463020E9463020E946302F1
:1003F0000E9463020C94CC01582EC8E0D1E088839F
:1004000020E009910F932F5F0A2D0F5F2017C9F786
:100410002F9120E00F910A932F5F2A15D9F7888337
:1004200020917C00207F25602062206820937C0042
:10043000C0917A00C064C068C0937A00C0917A000D
:10044000C6FD0C941E02C091780040917900B40E54
:10045000443020F0483038F40C943602823031F0C9
:1004600081E00C943602813009F082E020917C001A
:10047000207F2460206420937C00C0917A00C064B7
:10048000C068C0937A00C0917A00C6FD0C94430204
:10049000C091780040917900B40E443020F0403192
:1004A00038F40C945C02883039F084E00C945C02DF
:1004B000852D843009F088E0803011F00C946102C1
:1004C000852D582E08950E9480020E9480020E946D
:1004D00080020E9480020E9480020E9480020E948C
:1004E00080020E9480020E9480020E9480020E947C
:1004F00080020E9480020E9480020E948002089571
:1005000021502130E9F3089560E0B0E00C948402BA
:0205100008954C
:00000001FF
