:020000020000FC
:02000000B8C086
:100040000C94230000000E94EA010E94EA010E9431
:10005000EA010E94EA010E94EA01AF5F00916E008E
:1000600001E000936E000E9455000E946700AE33CD
:1000700009F018950E948501A0E000E0813031F080
:10008000823039F0883041F0843049F0660F0C94AA
:10009000520066950C945200B6950C945200BB0F1A
:1000A0000C9452000E94A400189521E0E0E0F1E0D9
:1000B0000B2F0223003011F40C94610061930C9417
:1000C000630000E00193220F203091F7089590E043
:1000D000C8E0D1E02991652E732E71E0E0E0F1E0F7
:1000E000032F0723003011F40C947B000081052BB3
:1000F00001930C947D0000810193770F703081F79C
:100100000E9488009F5F9A1541F7562D372D08955C
:10011000561721F43B1711F40E94FF012991213059
:1001200031F0223039F0283041F0243049F0569532
:100130000C94B800550F0C94B800330F0C94B80011
:1001400036950C94B8000895C8E0D1E02991299122
:10015000213031F0223031F0283031F0243031F0CC
:10016000550F08955695089536950895330F0895BF
:10017000089508E00EBF0FEF0DBF00912500056048
:1001800005BD789400916E0001E000936E000FEFC2
:1001900004B907B90AB900917C00006400600093BB
:1001A0007C0000917A0001600260046000680093A6
:1001B0007A0003E0A02E68E0B8E054E038E0A2E066
:1001C000E0E0F1E02A2F219320E0219320E0219329
:1001D00020E0219320E0219320E0219320E021934F
:1001E00020E02193E0E0F1E07081E8E0F1E02A2FE7
:1001F000219324E0219321E0219322E0219324E024
:10020000219320E0219320E0219320E0219301E03D
:1002100011E0000F0C94150101E011E0E0E0F1E0C5
:100220000C941501000F0C94150111E07191003030
:1002300099F3703071F3003184F5003871F11030AA
:1002400089F3212F2723D0E0123049F0113039F003
:100250002695269508B9DBB925B90C943801220FEB
:10026000220F220F220F220F220F08B92BB9D5B966
:10027000110F0E94EA010E94EA010E94EA010E9415
:10028000EA010E94EA010E94EA010E94EA010E943A
:10029000EA010E94EA010C941F01103019F2212F8B
:1002A0002723D0E0123069F0113059F026952695B9
:1002B00006950695D8B90BB925B9000F000F0C9417
:1002C0007001220F220F220F220F220F220F0695FC
:1002D0000695C02FC22BD8B9CBB9D5B9000F000FE6
:1002E000110F0E94EA010E94EA010E94EA010E94A5
:1002F000EA010E94EA010E94EA010E94EA010E94CA
:10030000EA010E94EA010C944D01582EC8E0D1E0A8
:10031000888320E009910F932F5F0A2D0F5F20172C
:10032000C9F72F9120E00F910A932F5F2A15D9F773
:10033000888320917C00207F2560206220682093A4
:100340007C00C0917A00C064C068C0937A00C091FC
:100350007A00C6FD0C94A701C09178004091790005
:10036000443020F0483038F40C94BE01823031F033
:1003700081E00C94BE01813009F082E020917C0084
:10038000207F2460206420937C00C0917A00C064A8
:10039000C068C0937A00C0917A00C6FD0C94CB016E
:1003A000C091780040917900443083FF28F04031BB
:1003B00082FF38F40C94E401883031F084E00C942E
:1003C000E401843009F088E0803011F00C94E901F8
:1003D000852D08950E94FB010E94FB010E94FB01F4
:1003E0000E94FB010E94FB010E94FB010E94FB0195
:1003F0000E94FB01089521502130E9F3089560E047
:08040000B0E00C94FF01089527
:00000001FF
