:020000020000FC
:020000002BC013
:10004000A0912500A560AD7FA0932500A0916E0032
:10005000A160A0936E0078940FEF04B907B90AB9B4
:1000600050E006B957B900B901B902B907B95FEF55
:10007000E0E0F1E022E4219320E021932FEF2193AF
:1000800021E8219322E421932CE3219320E0219382
:10009000E0E0F1E0708150E001E011E0000F0C942D
:1000A0005C0001E011E0E0E0F1E00E94C2000C948D
:1000B0005C00000F0C945C0011E07191003089F33A
:1000C000703061F300314CF5003839F1103089F3AC
:1000D000212F272350E0123041F0113031F02695C6
:1000E000269508B95BB925B909C0220F220F220F46
:1000F000220F220F220F08B92BB955B9110F0E94F8
:10010000DA000E94DA000E94DA000E94DA000E94FF
:10011000DA000E94DA000C946600103051F2212FB0
:10012000272350E0123061F0113051F026952695CA
:100130000695069558B90BB925B9000F000F0FC0E9
:10014000220F220F220F220F220F220F0695069553
:10015000302F322B58B93BB955B9000F000F110F92
:100160000E94DA000E94DA000E94DA000E94DA009F
:100170000E94DA000E94DA000C948D000C94590061
:100180000C942C0020917C00207F256020937C0023
:1001900020917A00206420937A0020917A0026FD35
:1001A000309178002091790055E5319350830C947B
:0C01B000D900089551505130ECF708952B
:00000001FF
