:020000020000FC
:1000000000C00FEF04B907B90AB95FEFE0E0F1E013
:1000100021E0219321E0219321E0219321E021930C
:1000200021E0219321E0219321E0219321E02193FC
:10003000E0E0F1E0708140E001E071910030C9F052
:100040007130E4F010EC2FE300313CF4003829F07B
:1000500008B91BB925B90C94340006950695102BE8
:100060001BB925B9000F000F000F003011F00C94E0
:100070001D0001E0E0E0F1E00C941D00000F0C9485
:0E0080001D000C94010051505130ECF7089512
:00000001FF
