:020000020000FC
:0200000058C0E6
:100040000C94230000000E945E010E945E010E9449
:100050005E010E945E010E945E01AF5F18950E94E2
:100060000D01A0E0813031F0823039F0883041F06C
:10007000843049F0660F0C94460066950C94460057
:10008000B6950C944600BB0F0C944600189521E0E1
:10009000E0E0F1E00B2F0223003011F40C94530048
:1000A00061930C94550000E00193220F203091F7EA
:1000B000089500912500056005BD78940FEF04B9FF
:1000C00007B90AB900917C000064006000937C00CD
:1000D00000917A00016002600460006800937A0079
:1000E00068E0B8E091E0A2E0E0E0F1E02A2F21939F
:1000F00020E0219320E021932FE3219320E021931E
:100100002FE1219320E0219320E02193E0E0F1E032
:10011000708101E011E0E0E0F1E00C949200000F4A
:100120000C949D0001E011E0E0E0F1E0E0E0F1E09E
:100130000C949D00000F0C949D0011E07191003013
:1001400089F3703061F3003184F5003871F11030BB
:1001500089F3212F272300E0123049F0113039F0C4
:100160002695269508B90BB925B90C94C000220F25
:10017000220F220F220F220F220F08B92BB905B927
:10018000110F0E945E010E945E010E945E010E94AA
:100190005E010E945E010E945E010E945E010E945B
:1001A0005E010E945E010C94A700103019F2212F0D
:1001B000272300E0123069F0113059F0269526957A
:1001C0000695069508B90BB925B9000F000F0C94D8
:1001D000F800220F220F220F220F220F220F069566
:1001E0000695302F322B08B93BB905B9000F000F27
:1001F000110F0E945E010E945E010E945E010E943A
:100200005E010E945E010E945E010E945E010E94EA
:100210005E010E945E010C94D500E0E0F1E02091C7
:100220007C00207F25602062206820937C00309134
:100230007A003064306830937A0030917A0036FD6D
:100240000C941D013091780040917900463028F0DF
:10025000483040F480E00C943501823031F081E088
:100260000C943501813009F082E020917C00207FE0
:100270002460206420937C0030917A0030643068E0
:1002800030937A0030917A0036FD0C94420130911F
:10029000780040917900443093FF28F0403192FF7C
:1002A00028F40C94570184E00C94570188E08030C6
:1002B00011F00C945C01892F982F08950E946F0112
:1002C0000E946F010E946F010E946F010E946F01E6
:1002D0000E946F010E946F010E946F0108950150FA
:0602E0000130E9F308956E
:00000001FF
