:020000020000FC
:1000000000C00FEF04B907B90AB95FEFE0E0F1E013
:1000100020E0219326E321932FE721932FE72193DB
:100020002EE321932CE1219328E0219320E02193DA
:10003000E0E0F1E0708150E001E011E0000F0C948D
:100040002A0001E011E0E0E0F1E00C942A00000F4A
:100050000C942A0011E07191003099F3703071F323
:1000600000314CF5003839F1103089F3212F272366
:1000700050E0123041F0113031F02695269508B944
:100080005BB925B909C0220F220F220F220F220FC0
:10009000220F08B92BB955B9110F0E9490000E9488
:1000A00090000E9490000E9490000E9490000E9488
:1000B00090000C943400103051F2212F272350E08F
:1000C000123061F0113051F026952695069506956F
:1000D00058B90BB925B9000F000F0FC0220F220F1E
:1000E000220F220F220F220F06950695302F322B5A
:1000F00058B93BB955B9000F000F110F0E9490007D
:100100000E9490000E9490000E9490000E94900027
:100110000E9490000C945B000C9427000C9401004A
:0801200051505130ECF7089535
:00000001FF
