:020000020000FC
:020000004EC0F0
:100040000C94230000000E9456010E9456010E9459
:1000500056010E9456010E945601AF5F50916E00FA
:1000600051E050936E00AE3309F018950E940B01D9
:10007000A0E0813031F0823039F0883041F08430B6
:1000800049F0660F0C944D0066950C944D00BB0F23
:100090000C944D00B6950C944D00608318955091CA
:1000A0002500556055BD789450916E0051E05093F5
:1000B0006E000FEF04B907B90AB950E000917C0057
:1000C0000064006000937C0000917A00016002608F
:1000D0000460006800937A0068E0B8E05FEF91E0A8
:1000E000A2E0E0E0F1E02A2F219320E0219320E03C
:1000F000219320E0219320E0219320E0219320E030
:10010000219320E02193E0E0F1E0708150E001E0F4
:1001100011E0E0E0F1E00C949000000F0C949B00E3
:1001200001E011E0E0E0F1E0E0E0F1E00C949B00A0
:10013000000F0C949B0011E07191003089F3703036
:1001400061F3003184F5003871F1103089F3212F0B
:10015000272350E0123049F0113039F026952695CA
:1001600008B95BB925B90C94BE00220F220F220FEB
:10017000220F220F220F08B92BB955B9110F0E9477
:1001800056010E9456010E9456010E9456010E948B
:1001900056010E9456010E9456010E9456010E947B
:1001A00056010C94A500103019F2212F272350E09E
:1001B000123069F0113059F026952695069506956E
:1001C00058B90BB925B9000F000F0C94F600220F97
:1001D000220F220F220F220F220F06950695302F95
:1001E000322B58B93BB955B9000F000F110F0E94BF
:1001F00056010E9456010E9456010E9456010E941B
:1002000056010E9456010E9456010E9456010E940A
:1002100056010C94D300E0E0F1E020917C00207FB7
:1002200025602062206820937C0030917A00306441
:10023000306830937A0030917A0036FD0C941B01BF
:100240003091780040917900463028F0483030F401
:1002500080E00C942F0181E00C942F0182E020912A
:100260007C00207F2460206420937C0030917A0001
:100270003064306830937A0030917A0036FD0C9407
:100280003C013091780040917900443020F04031B9
:1002900028F40C944F0184E00C944F0188E08030E6
:1002A00011F00C945401892F982F08950E94670132
:1002B0000E9467010E9467010E9467010E94670116
:1002C0000E9467010E9467010E94670108955150D2
:0602D0005130E9F308952E
:00000001FF
