:020000020000FC
:0200000039C005
:100040000C94230000000E9440010E9440010E9485
:1000500040010E9440010E944001AF5F50916E003C
:1000600051E050936E00AE3309F018950E94F400F1
:10007000A0E0189550912500556055BD7894509199
:100080006E0051E050936E000FEF04B907B90AB942
:1000900050E000917C000064006000937C000091BF
:1000A0007A00016002600460006800937A005FEFEC
:1000B00091E0A2E0E0E0F1E02A2F219320E02193FB
:1000C00020E0219320E0219320E0219320E0219360
:1000D00020E0219320E02193E0E0F1E0708150E006
:1000E00001E011E0E0E0F1E00C947900000F0C94E5
:1000F000840001E011E0E0E0F1E0E0E0F1E00C94E8
:100100008400000F0C94840011E07191003089F399
:10011000703061F3003184F5003871F1103089F3EB
:10012000212F272350E0123049F0113039F0269565
:10013000269508B95BB925B90C94A700220F220FA8
:10014000220F220F220F220F08B92BB955B9110F18
:100150000E9440010E9440010E9440010E94400113
:100160000E9440010E9440010E9440010E94400103
:100170000E9440010C948E00103019F2212F272389
:1001800050E0123069F0113059F026952695069509
:10019000069558B90BB925B9000F000F0C94DF0074
:1001A000220F220F220F220F220F220F06950695F3
:1001B000302F322B58B93BB955B9000F000F110F32
:1001C0000E9440010E9440010E9440010E944001A3
:1001D0000E9440010E9440010E9440010E94400193
:1001E0000E9440010C94BC00E0E0F1E020917C0012
:1001F000207F25602062206820937C0030917A0067
:100200003064306830937A0030917A0036FD0C9477
:1002100004013091780040917900463028F0483050
:1002200030F480E00C94180181E00C94180182E015
:1002300020917C00207F2460206420937C003091FA
:100240007A003064306830937A0030917A0036FD5D
:100250000C9425013091780040917900443020F0D1
:10026000403128F40C94380184E00C94380188E083
:10027000803011F00C943D01892F982F80830895D0
:100280000E9451010E9451010E9451010E9451019E
:100290000E9451010E9451010E9451010E9451018E
:0A02A000089551505130E9F308951C
:00000001FF
