:020000020000FC
:0200000037C007
:100040000C942300000028E7219320E0219320E076
:10005000219328E1219320E0219328EF219320E0B0
:10006000219320E02193E0E0F1E070810C9488007E
:100070005091250055605D7F5093250050916E0092
:100080005160516050936E0078940FEF04B907B936
:100090000AB950E000917C000064006000937C008D
:1000A00000917A00016002600460006800937A00A9
:1000B0005FEF91E0E0E0F1E020E0219320E0219388
:1000C00020E0219320E0219320E0219320E0219360
:1000D00020E0219320E02193E0E0F1E0708150E006
:1000E00001E011E0E0E0F1E00E94F8000C947B00F8
:1000F000000F0C94880001E011E0E0E0F1E00E94C4
:10010000F800E0E0F1E00C948800000F0C94880007
:1001100011E07191003079F3703051F3003184F5C2
:10012000003871F1103089F3212F272350E012306D
:1001300049F0113039F02695269508B95BB925B9F3
:100140000C94AB00220F220F220F220F220F220F3E
:1001500008B92BB955B9110F0E9442010E94420102
:100160000E9442010E9442010E9442010E944201FB
:100170000E9442010E9442010E9442010C9492009E
:10018000103019F2212F272350E0123069F011307E
:1001900059F0269526950695069558B90BB925B9B7
:1001A000000F000F0C94E300220F220F220F220FEA
:1001B000220F220F06950695302F322B58B93BB9E6
:1001C00055B9000F000F110F0E9442010E94420119
:1001D0000E9442010E9442010E9442010E9442018B
:1001E0000E9442010E9442010E9442010C94C00000
:1001F00020917C00207F25602062206820937C0075
:1002000030917A003064306830937A0030917A000F
:1002100036FD0C940601309178004091790042300F
:1002200028F0483030F480E00C941A0181E00C94FE
:100230001A0182E020917C00207F246020642093BA
:100240007C0030917A003064306830937A003091CD
:100250007A0036FD0C9427013091780040917900A6
:10026000443020F0403128F40C943A0184E00C949E
:100270003A0188E0803011F00C943F01892F982FCB
:10028000808308950E9447010E94470108955150BC
:060290005130E9F308956E
:00000001FF
