:020000020000FC
:020000001FC01F
:100040000FEF04B907B90AB950E000917C000064D1
:10005000006000937C0000917A00016002600460FF
:10006000006800937A005FEFE0E0F1E020E0219388
:1000700020E0219320E0219320E0219320E02193B0
:1000800020E0219320E0219320E02193E0E0F1E0C3
:10009000708150E001E011E0000F0C945C0001E081
:1000A00011E0E0E0F1E00E94CC00E0E0F1E00C942F
:1000B0005C00000F0C945C0011E07191003079F34A
:1000C000703051F3003184F5003871F1103089F34C
:1000D000212F272350E0123049F0113039F02695B6
:1000E000269508B95BB925B90C947F00220F220F21
:1000F000220F220F220F220F08B92BB955B9110F69
:100100000E94FC000E94FC000E94FC000E94FC0077
:100110000E94FC000E94FC000E94FC000E94FC0067
:100120000E94FC000C946600103019F2212F272346
:1001300050E0123069F0113059F026952695069559
:10014000069558B90BB925B9000F000F0C94B700EC
:10015000220F220F220F220F220F220F0695069543
:10016000302F322B58B93BB955B9000F000F110F82
:100170000E94FC000E94FC000E94FC000E94FC0007
:100180000E94FC000E94FC000E94FC000E94FC00F7
:100190000E94FC000C94940020917C00207F25603C
:1001A0002062206820937C0030917A0030643068AF
:1001B00030937A0030917A0036FD0C94DA00309159
:1001C000780040917900419320917C00207F246049
:1001D000206420937C0030917A0030643068309342
:1001E0007A0030917A0036FD0C94F100309178005D
:1001F00040917900419308950E9465020E94650232
:100200000E9465020E9465020E9465020E946502CA
:100210000E9465020E9465020E9465020E946502BA
:100220000E9465020E9465020E9465020E946502AA
:100230000E9465020E9465020E9465020E9465029A
:1004C0000E9465020E946502089551505130E9F37F
:0204D00008958D
:00000001FF
