:020000020000FC
:0200000061C0DD
:100040000C94230000000E946C010E946C010E942D
:100050006C010E946C010E946C01AF5F00916E0008
:1000600001E000936E000E945000AE3309F0189535
:100070000E941B01A0E0813031F0823039F08830DD
:1000800041F0843049F0660F0C944F0066950C9453
:100090004F00B6950C944F00BB0F0C944F00189571
:1000A00021E0E0E0F1E00B2F0223003011F40C948A
:1000B0005C0061930C945E0000E00193220F2030FD
:1000C00091F7089500912500056005BD7894009191
:1000D0006E0001E000936E000FEF04B907B90AB992
:1000E00000917C000064006000937C0000917A0025
:1000F000016002600460006800937A0068E0B8E084
:1001000091E0A2E0E0E0F1E02A2F219320E02193AA
:1001100020E0219320E0219320E0219320E021930F
:1001200020E0219320E02193E0E0F1E0708101E004
:1001300011E0E0E0F1E00C94A000000F0C94AB00A3
:1001400001E011E0E0E0F1E0E0E0F1E00C94AB0070
:10015000000F0C94AB0011E07191003089F3703006
:1001600061F3003184F5003871F1103089F3212FEB
:100170002723D0E0123049F0113039F0269526952A
:1001800008B9DBB925B90C94CE00220F220F220F3B
:10019000220F220F220F08B92BB9D5B9110F0E94D7
:1001A0006C010E946C010E946C010E946C010E9413
:1001B0006C010E946C010E946C010E946C010E9403
:1001C0006C010C94B500103019F2212F2723D0E0D8
:1001D000123069F0113059F026952695069506954E
:1001E000D8B90BB925B9000F000F0C940601220FE6
:1001F000220F220F220F220F220F06950695C02FE5
:10020000C22BD8B9CBB9D5B9000F000F110F0E947E
:100210006C010E946C010E946C010E946C010E94A2
:100220006C010E946C010E946C010E946C010E9492
:100230006C010C94E300E0E0F1E020917C00207F71
:1002400025602062206820937C00C0917A00C06401
:10025000C068C0937A00C0917A00C6FD0C942B014F
:10026000C091780040917900463028F0483040F441
:1002700080E00C944301823031F081E00C94430122
:10028000813009F082E020917C00207F246020648E
:1002900020937C00C0917A00C064C068C0937A004B
:1002A000C0917A00C6FD0C945001C0917800409135
:1002B0007900443093FF28F0403192FF28F40C94E9
:1002C000650184E00C94650188E0803011F00C94A5
:1002D0006A01892F982F08950E947D010E947D0157
:1002E0000E947D010E947D010E947D010E947D018E
:1002F0000E947D010E947D01089521502130E9F383
:0203000008955E
:00000001FF
