:020000020000FC
:020000006DC1D0
:100040000C9423000000AF5FBA0E01E000936E0035
:100050000E9458000E944A010E946E00AE3109F0D1
:1000600018950E943102A0E000E0813031F082302A
:1000700051F0883071F0843091F0660F6030A9F44F
:1000800061E00C9455006695603079F460E80C945A
:100090005500B695B03049F4B0E80C945500BB0F4C
:1000A000B03019F4B1E00C9455000E94C7001895C7
:1000B00021E0E0E0F1E00E945E010B2F022300301E
:1000C00011F40C94660061930C94680000E00193B5
:1000D000220F203091F70E945E01089590E0C8E061
:1000E000D1E02991652E732E71E0E0E0F1E0032F5D
:1000F0000723003011F40C9482000081052B01933A
:100100000C94840000810193770F703081F70E9476
:100110008F009F5F9A1541F7562D372D089556177A
:1001200021F43B1711F40E949E02581531F4391541
:1001300021F40E94F0000C9495002991213031F0B7
:10014000223061F0283091F02430C1F056955030C3
:10015000E9F4252F20E8522F0C94C600550F50309B
:10016000A9F4252F21E0522F0C94C600330F303014
:1001700069F4232F21E0322F0C94C60036953030DD
:1001800029F4232F20E8322F0C94C6000895C8E0EC
:10019000D1E029912991213031F0223059F02830D5
:1001A00081F02430A9F0550F5030C9F4252F21E0FB
:1001B000522F08955695503091F4252F20E8522F54
:1001C00008953695303059F4232F20E8322F0895C2
:1001D000330F303021F4232F21E0322F089508957A
:1001E00020917C00207F2460206820937C00C091B7
:1001F0007A00C064C068C0937A00C0917A00C6FDDE
:100200000C94FD00C091780040917900BC0EB6942A
:10021000CB2DCF70BC2E40E021E0CB2DCF5FC03086
:1002200009F4C1E0220F4F5F4C17E1F7203009F4C9
:1002300021E0822E0E949A0220917C00207F24607F
:10024000206420937C00C0917A00C064C068C09391
:100250007A00C0917A00C6FD0C942901C091780003
:1002600040917900BC0EC695CB2DCF70BC2E40E0DE
:1002700021E0CB2DCF5FCB9DC10DC90DC03009F45E
:10028000C1E0220F4F5F4C17E1F7203009F421E065
:10029000922E089521E0E0E0F1E0092D02230030E4
:1002A00011F40C9458010081082901930C945A010F
:1002B00000810193220F203081F70895861669F49A
:1002C0009B1659F42A2D2F5FA22E0E949A020E949B
:1002D000F000861611F49B16C1F3089508E00EBFD6
:1002E0000FEF0DBF00912500056005BD78940091CA
:1002F0006E0001E000936E000FEF04B907B90AB970
:1003000000917C000064006000937C0000917A0002
:10031000016002600460006800937A0003E0A02E90
:1003200081E000E4802E00E4902E0E94F00068E05E
:10033000B8E054E038E0A2E0E0E0F1E020E0219312
:1003400020E0219320E0219320E0219320E02193DD
:1003500020E0219320E0219320E02193E0E0F1E0F0
:100360007081E8E0F1E020E0219324E0219321E096
:10037000219322E0219324E0219320E0219320E0A7
:10038000219320E0219301E011E0000F0C94D101B2
:1003900001E011E0E0E0F1E00C94D101000F0C94D9
:1003A000D10111E07191003099F3703071F3003197
:1003B00044F5003831F1103089F3212F2723D0E0A4
:1003C000123049F0113039F02695269508B9DBB97D
:1003D00025B90C94F401220F220F220F220F220FB5
:1003E000220F08B92BB9D5B9110F0E949A020E94A9
:1003F0009A020E949A020E949A020E949A020C9407
:10040000DB01103059F2212F2723D0E0123069F0A0
:10041000113059F02695269506950695D8B90BB951
:1004200025B9000F000F0C942402220F220F220F77
:10043000220F220F220F06950695C02FC22BD8B986
:10044000CBB9D5B9000F000F110F0E949A020E947C
:100450009A020E949A020E949A020E949A020C94A6
:100460000102582EC8E0D1E0888320E009910F9363
:100470002F5F0A2D0F5F2017C9F72F9120E00F91F2
:100480000A932F5F2A15D9F7888320917C00207F5B
:1004900025602062206820937C00C0917A00C064AF
:1004A000C068C0937A00C0917A00C6FD0C945302D4
:1004B000C091780040917900B40E443028F0483063
:1004C00040F480E00C946C02823031F081E00C94B6
:1004D0006C02813009F082E020917C00207F246052
:1004E000206420937C00C0917A00C064C068C093EF
:1004F0007A00C0917A00C6FD0C947902C091780010
:1005000040917900B40E443020F0403140F40C9416
:100510009302452D483039F084E00C949302852DE8
:10052000843009F088E0803011F00C949802852D19
:10053000582E089521502130E9F3089560E0B0E08D
:060540000C949E020895D8
:00000001FF
