:020000020000FC
:1000000000C00FEF04B907B90AB95FEFE0E0F1E013
:1000100021E0219321E0219320E0219320E021930E
:1000200020E0219321E0219320E0219320E0208310
:10003000E0E0F1E0708140E001E071910038B9F05A
:1000400071300CF110EC2FE300312CF408B91BB91E
:1000500025B90C94320006950695102B1BB925B9CD
:10006000000F000F003819F0000F0C941D000695CA
:100070000695102B1BB925B9000F000F01E0E0E039
:10008000F1E00C941D00000F0C941D000C94010075
:0800900051505130ECF70895C6
:00000001FF
