:020000020000FC
:020000002BC013
:10004000A0912500A560AD7FA0932500A0916E0032
:10005000A160A0936E0078940FEF04B907B90AB9B4
:100060005FEFE0E0F1E00E94BB0022E4219320E09A
:1000700021932FEF219321E8219322E421932CE374
:10008000219320E02193E0E0F1E0708150E001E075
:1000900011E0000F0C94550001E011E0E0E0F1E008
:1000A0000C945500000F0C94550011E07191003034
:1000B00099F3703071F300314CF5003839F110309C
:1000C00089F3212F272350E0123041F0113031F015
:1000D0002695269508B95BB925B909C0220F220FCC
:1000E000220F220F220F220F08B92BB955B9110F79
:1000F0000E94CE000E94CE000E94CE000E94CE0040
:100100000E94CE000E94CE000C945F00103051F28D
:10011000212F272350E0123061F0113051F0269545
:1001200026950695069558B90BB925B9000F000F0D
:100130000FC0220F220F220F220F220F220F06952F
:100140000695302F322B58B93BB955B9000F000F27
:10015000110F0E94CE000E94CE000E94CE000E948D
:10016000CE000E94CE000E94CE000C9486000C941B
:1001700052000C942C0088B120E02193803069F06B
:100180002DE021930C94CD0098B120E02193903084
:1001900021F02DE021930C94CD0008955150513061
:0401A000ECF70895DB
:00000001FF
