:020000020000FC
:02000000B2C08C
:100040000C94230000000E94DD010E94DD010E944B
:10005000DD010E94DD010E94DD01AF5F00916E00B5
:1000600001E000936E000E9455000E946700AE33CD
:1000700009F018950E947D01A0E000E0813031F088
:10008000823039F0883041F0843049F0660F0C94AA
:10009000520066950C945200B6950C945200BB0F1A
:1000A0000C9452000E949E00189521E0E0E0F1E0DF
:1000B0000B2F0223003011F40C94610061930C9417
:1000C000630000E00193220F203091F7089590E043
:1000D000C8E0D1E02991652E732E71E0E0E0F1E0F7
:1000E000032F0723003011F40C947B000081052BB3
:1000F00001930C947D0000810193770F703081F79C
:100100000E9488009F5F943041F7562D372D089547
:100110002991213031F0223039F0283041F024305B
:1001200049F056950C94B200550F0C94B200330F61
:100130000C94B20036950C94B2000895C8E0D1E05A
:1001400029912991213031F0223031F0283031F0DD
:10015000243031F0550F0895569508953695089539
:10016000330F0895089508E00EBF0FEF0DBF009103
:100170002500056005BD789400916E0001E00093B4
:100180006E000FEF04B907B90AB900917C00006452
:10019000006000937C0000917A00016002600460BE
:1001A000006800937A0068E0B8E054E038E0A2E02C
:1001B000E0E0F1E02A2F219320E0219320E0219339
:1001C00020E0219320E0219320E0219320E021935F
:1001D00020E02193E0E0F1E07081E8E0F1E02A2FF7
:1001E000219324E0219321E0219322E0219324E034
:1001F000219320E0219320E0219320E0219301E04E
:1002000011E0000F0C940D0101E011E0E0E0F1E0DD
:100210000C940D01000F0C940D0111E07191003050
:1002200099F3703071F3003184F5003871F11030BA
:1002300089F3212F2723D0E0123049F0113039F013
:100240002695269508B9DBB925B90C943001220F03
:10025000220F220F220F220F220F08B92BB9D5B976
:10026000110F0E94DD010E94DD010E94DD010E944C
:10027000DD010E94DD010E94DD010E94DD010E947E
:10028000DD010E94DD010C941701103019F2212FBD
:100290002723D0E0123069F0113059F026952695C9
:1002A00006950695D8B90BB925B9000F000F0C9427
:1002B0006801220F220F220F220F220F220F069514
:1002C0000695C02FC22BD8B9CBB9D5B9000F000FF6
:1002D000110F0E94DD010E94DD010E94DD010E94DC
:1002E000DD010E94DD010E94DD010E94DD010E940E
:1002F000DD010E94DD010C944501582EC8E0D1E0DB
:10030000888320E009910F932F5F2530D9F72F9133
:1003100020E00F910A932F5F2430D9F78883209132
:100320007C00207F25602062206820937C00C091A3
:100330007A00C064C068C0937A00C0917A00C6FD9C
:100340000C949D01C091780040917900443028F0D0
:10035000483040F480E00C94B501823031F081E007
:100360000C94B501813009F082E020917C00207F5F
:100370002460206420937C00C0917A00C064C0682F
:10038000C0937A00C0917A00C6FD0C94C201C0915E
:10039000780040917900443083FF28F0403182FF9B
:1003A00028F40C94D70184E00C94D70188E08030C5
:1003B00011F00C94DC01852D08950E94EE010E943D
:1003C000EE010E94EE010E94EE010E94EE010E94E9
:1003D000EE010E94EE010E94EE01089521502130AD
:0403E000E9F30895A0
:00000001FF
